:020000040800F2
:10000000E8070024B1020008AF4B0008CF47000802
:10001000AD4B0008E30800082D5D0008000000005B
:10002000000000000000000000000000F94E000881
:100030002109000800000000B14B0008FB4E000839
:10004000CB020008CB020008CB020008CB0200085C
:10005000CB020008CB020008CB020008CB0200084C
:10006000CB020008CB020008CB020008CB0200083C
:10007000CB020008CB020008CB020008CB0200082C
:10008000CB020008CB020008CB020008450900089B
:10009000CB02000851090008CB020008CB0200087F
:1000A000CB020008CB020008CB020008CB020008FC
:1000B000CB020008CB020008CB020008CB020008EC
:1000C000CB020008CB020008CB020008CB020008DC
:1000D000CB020008CB020008215D0008CB0200081B
:1000E000CB020008CB02000800000000CB02000891
:1000F000CB020008CB020008CB020008CB020008AC
:10010000CB020008CB020008CB020008CB0200089B
:10011000CB020008CB020008F9510008CB0200080E
:10012000CB020008CB020008CB020008CB0200087B
:10013000CB020008CB020008CB020008CB0200086B
:1001400000000000000000000000000000000000AF
:10015000CB020008CB020008CB020008CB0200084B
:10016000CB020008CB020008CB020008CB0200083B
:10017000CB020008CB020008CB020008CB0200082B
:10018000CB020008CB020008CB020008CB0200081B
:10019000CB020008CB020008CB020008CB0200080B
:1001A000CB020008CB020008CB020008CB020008FB
:1001B000CB020008CB020008CB020008CB020008EB
:1001C000CB020008CB020008CB020008CB020008DB
:1001D000CB020008CB020008CB020008CB020008CB
:1001E000CB020008CB020008CB020008CB020008BB
:1001F000CB020008CB020008CB020008CB020008AB
:10020000CB020008CB020008CB020008CB0200089A
:10021000CB020008CB020008CB020008CB0200088A
:10022000CB020008CB020008CB020008000000004F
:10023000CB020008CB02000800000000CB0200083F
:10024000CB020008CB020008CB020008CB0200085A
:10025000CB020008CB020008CB020008CB0200084A
:10026000CB020008CB020008CB020008CB0200083A
:10027000CB020008CB020008CB02000800000000FF
:10028000CB020008CB020008CB02000800000000EF
:1002900000000000CB020008DFF810D000F0A0FA48
:1002A00000480047C56E0008AFF30080E80700244F
:1002B0000648804706480047FEE7FEE7FEE7FEE700
:1002C000FEE7FEE7FEE7FEE7FEE7FEE71D5100085A
:1002D000990200082DE9F05F0546002092469B46F2
:1002E00088460646814640241BE02846414647464C
:1002F000224600F069F853465A46C01A914110D37D
:1003000011461846224600F050F82D1A67EB0108F6
:100310004F4622460120002100F047F817EB000964
:100320004E41201EA4F10104DFDC484631462A4636
:100330004346BDE8F09F40EA01039B0703D009E074
:1003400008C9121F08C0042AFAD203E011F8013BC1
:1003500000F8013B521EF9D27047D2B201E000F81A
:10036000012B491EFBD270470022F6E710B5134659
:100370000A4604461946FFF7F0FF204610BD30B587
:100380000B46014600202022012409E021FA02F553
:100390009D4205D303FA02F5491B04FA02F52844ED
:1003A000151EA2F10102F1DC30BD202A04DB203A47
:1003B00000FA02F1002070479140C2F1200320FAB8
:1003C00003F3194390407047202A04DB203A21FAB6
:1003D00002F00021704721FA02F3D040C2F120025E
:1003E00091400843194670472DE9FE4F804681EA47
:1003F0000300C00F0C46009021F0004123F000459F
:10040000B8EB0200A94105D24046214690461C4661
:100410000B46024623F00040104347D0270DC7F398
:100420000A00C3F30A510290401A019040286BDA87
:10043000C3F3130040F4801B0098924620B10023C0
:10044000D2EB030A63EB0B0B01985946C0F1400253
:100450005046FFF7AAFF06460D4650465946019AF8
:1004600000F0D0F910EB08006141002487EA115236
:1004700084EAE7731A4340D0009A62B3019A012AD2
:100480004FEA075215DC001B61EB02014FF00042FE
:1004900002EA0752CDE90042001C41F580113246C4
:1004A0002B4600F0D0F903B0BDE8F08F404621465E
:1004B000F9E7001B61EB0201001C41F580130018F5
:1004C0005B412018A2F5001747EB030140EAD57005
:1004D000B6196D4111E06D084FEA360645EAC07560
:1004E0004FEA0752001B61EB0201001C41F580112D
:1004F00049084FEA30000019514132462B4603B0FB
:10050000BDE8F04F00F090B90098012240000023B0
:10051000D0EB020263EBE073009821464FEAE074EF
:10052000B8EB000061EB0401E9E783F000435BE70F
:1005300081F0004158E72DE9FE4F81EA030404F001
:10054000004421F0004100944FF0000B23F00043E1
:1005500050EA01045ED052EA03045BD0C3F30A54AC
:10056000C1F30A552C44A4F2F3340194A0FB0254C5
:10057000C1F3130141F48011C3F3130343F4801357
:1005800001FB024400FB034E840A970A44EA8154AB
:1005900047EA8357A4FB076802958D0A05FB078588
:1005A0004FEA932C04FB0C542705029D4FEA065892
:1005B00047EA1637B5EB08056EEB070C870E920E6F
:1005C00047EA811742EA8312A7FB0201B6EB0B014F
:1005D00064EB00042B0D43EA0C335E1844EB1C5013
:1005E000DA465146E7FB0201C5F313044FEA0B3329
:1005F00043EA14534FEA0432019C43EA0603A4F190
:100600000C040294009CCDE900B400F01CF903B086
:10061000BDE8F08F00200146F9E72DE9F04D81EAB1
:10062000030404F0004B21F0004514464FF0000A8B
:1006300023F0004150EA050220D054EA01021DD007
:10064000C5F30A570246C5F31303C1F31300C1F300
:100650000A5640F4801543F48013A7EB0608101BDC
:10066000D64608F2FD3873EB050002D308F1010805
:1006700001E092185B41B8F1000F03DA0020014657
:10068000BDE8F08D00204FF48011064684460EE050
:10069000171B73EB050705D3121B63EB050306431A
:1006A0004CEA010C49084FEA300092185B4150EACD
:1006B0000107EDD152EA030012D082EA040083EA76
:1006C0000501084305D0101BAB4106D201220023CF
:1006D00006E000224FF0004302E06FF001025310E9
:1006E0001AEB06004CEB085110EB0A0041EB0B0132
:1006F000BDE8F04D00F098B82DE9FE4FC3F30A575E
:1007000001F000450024C1F30A56C3F31303C1F3FB
:10071000130143F4801312EB020AA64641F4801140
:10072000009543EB030CA7F1010B16E0B0EB0A00B8
:1007300061EB0C01071E71F1000707DA4FF00008AA
:10074000D0EB080085F0004568EB0101171A73EB48
:100750000107EBD3761E001849415E45F6DA50EAF0
:10076000010209D0CDE900E500221346029600F00F
:100770006AF803B0BDE8F08F20460099F9E7C1F3AD
:100780000A52C1F3130140F2FF3341F480119A423F
:1007900002DA00200146704740F233439A42A2F247
:1007A000334202DC5242FFF70FBEFFF7FEBD0000EE
:1007B00030B5041E71F1000404DB4FF000444042E8
:1007C00064EB0101141E73F1000405DB1C464FF0BD
:1007D0000043524263EB0403994208BF904230BD8C
:1007E000064C074D06E0E06840F0010394E807007E
:1007F00098471034AC42F6D3FFF752FDD07300088F
:10080000F0730008202A06DBCB17203A41FA02F0E9
:1008100043EAE07306E041FA02F3D040C2F120025D
:10082000914008431946704710B5141E73F1000437
:1008300008DA401C41F1000192185B411A4301D1D2
:1008400020F0010010BD2DE9F04D92469B4611B1FC
:10085000B1FA81F202E0B0FA80F220329046FFF75E
:10086000A4FD04460F4640EA0A0041EA0B01534644
:100870005A46084313D0114653EA010019D0C8F173
:1008800040025046FFF7A0FD05460E465046594629
:100890004246FFF78AFD084305D0012004E02046C8
:1008A0003946BDE8F08D0020054346EAE0762C434A
:1008B00037430A986305E40AA0EB08000022FD0A0A
:1008C00044EA47540A3002D500200146E9E7010511
:1008D00010196941DDE9084500196941BDE8F04D8D
:1008E000A2E7FEE70C4940F2231310B500220B608B
:1008F0004FF400234A608A600A614A618A61CA61D2
:10090000CB600A62054A00F0BBFC002803D0BDE8BA
:10091000104000F007B810BDE400002408000024D7
:100920007047000072B6064C4FF47A750022012120
:10093000204601F0FDF9284600F090FCF6E70000A3
:1009400000100258014800F09DBD0000080100247D
:10095000014800F097BD000008010024F0B50368CD
:100960004FF6FC716D4C426BD3F884508D4345EAD1
:100970008205C3F88450036853F8845F068F25F41A
:100980007F0545EA06451D60836B654D9F1802682B
:10099000D2F888308B4343EA8703C2F88830026874
:1009A00052F8883F868F23F4FE0343EA0643136020
:1009B000066856F8A03FC26B8B4307EB420243EA3E
:1009C00082033360076857F8A03FB0F8406023F413
:1009D000FE0343EA06433B60D0E9103603FB0622E0
:1009E0000368D3F8B0608E4346EA8206C3F8B0606D
:1009F0000368B0F84860D3F8B07027F4FE0747EA00
:100A00000646C3F8B060D0E91267036806FB072208
:100A1000D3F8AC608E4346EA8206C3F8AC60D0E9F6
:100A20001467036806FB0722D3F8F0608E4346EA9A
:100A30008206C3F8F0600368B0F85860D3F8F0702D
:100A400027F47C1747EA0646C3F8F0600368876D11
:100A500053F8C06F02EB47028E4346EA82011960E9
:100A60000168B0F85C20D1F8C03023F47C1343EA6D
:100A70000242C1F8C020016890F86020D1F8C0306F
:100A800023F07C5343EA0262C1F8C020416B04EBBF
:100A90008101C166826B01EB82020267C36B02EBCC
:100AA000C3024267D0E91034634302EB83028267DA
:100AB000D0E91234634302EB8302C267D0E91434F5
:100AC000634302EB8302C0F88020836D02EBC30313
:100AD000C0F88430C46D826E544303EB8403C0F8C5
:100AE0008830046E544303EB8402C0F89020AA427D
:100AF0000AD9D0F89C20032142F02002C0F89C20A3
:100B000080F898100120F0BD002200E004C1D0F868
:100B100090308B42FAD80020F0BD000000AC0040BD
:100B2000FCD30040F0B58E680C69D1E9005744EA67
:100B30000604DFB145F080452C43866ED1E906C539
:100B40004F695E4391F8203045EA0C05D0F884E007
:100B50000020D1F80CC047EA0363114F1D430EEB90
:100B6000860345EA0C05E3E8024511E044EA8544C2
:100B7000E3E71418155CA67894F803C094F801E034
:100B8000360445EA0C6446EA0E252C43001D10C3CA
:100B9000CC6807EB144424788442EAD8F0BD000006
:100BA000187200080A48002110B580ED000A0948B3
:100BB00003F068FA0748042103F064FA05480821A5
:100BC00003F060FABDE8104003A005F0B1B80000E2
:100BD0002C000024B802002450574D20696E69741F
:100BE00069616C697A6174696F6E20636F6D706C96
:100BF000657465640A00000010B52DED028BB0EE3F
:100C0000000A9FED138AF0EE480A06F081FA4FF4CD
:100C10007A7000F023FB03F0DBFD06F021F90D4CA8
:100C2000F0EE480A84ED050A9FED0B0A06F070FA13
:100C300094ED050A09A0B7EEC00A53EC102B05F09D
:100C400077F803F0C5FD84ED0B0ABDEC028B10BDF7
:100C5000E4CB96402C000024000000007A65726FFF
:100C60005F656C6563747269635F616E676C652054
:100C70002025660A000000002DE9F84F044601F027
:100C800063F800903CB194F83500022806D080212A
:100C900061650020E4E00120BDE8F88FC74DC74E34
:100CA000C649183520683036DFF81483DFF814930E
:100CB0008842DFF814A3DFF814B32ED0A8422CD05A
:100CC000B0422AD0404528D0484526D0504524D0AF
:100CD000584522D0BD4A183290421ED0BC4A90429C
:100CE0001BD0BB4A1832904217D0B94A30329042DA
:100CF00013D0B74A483290420FD0B54A6032904282
:100D00000BD0B34A7832904207D0B14A9032904229
:100D100003D0AF4AA832904209D1026822F01E02E5
:100D200002602068426922F08002426103E00268AA
:100D300022F00E02026027688F4238464DD0A8424A
:100D40004BD0B04249D0404547D0484545D05045AA
:100D500043D0584541D09D4A183290423DD09C4ADC
:100D600090423AD09A4A1832904236D0984A30325D
:100D7000904232D0964A483290422ED0944A603205
:100D800090422AD0924A7832904226D0904A9032AD
:100D9000904222D08E4AA83290421ED08D4A904274
:100DA0001BD08C4A1432904217D08A4A2832904283
:100DB00013D0884A3C3290420FD0864A503290423B
:100DC0000BD0844A6432904207D0824A78329042F3
:100DD00003D0804A8C32974204D1206E026822F4FC
:100DE0008072026075492068884228D0A84226D0C7
:100DF000B04224D0404522D0484520D050451ED096
:100E000058451CD071491831884218D07049884221
:100E100015D06F491831884211D06D493031884260
:100E20000DD06B494831884209D069496031884208
:100E300005D067497831884201D065499031016811
:100E400021F0010101600EE000F07EFF0099401AE0
:100E5000052808D9202262650321002084F8351076
:100E600084F8340017E73868C007EDD1534A0121F0
:100E7000206890422ED0A8422CD0B0422AD04045C3
:100E800028D0484526D0504524D0584522D04F4B35
:100E9000183398421ED04E4B98421BD04C4B1833FF
:100EA000984217D04A4B3033984213D0484B4833BE
:100EB00098420FD0464B603398420BD0444B783366
:100EC000984207D0424B9033984203D0404BA8330E
:100ED000984208D194F85C703F23A06D07F01F077B
:100EE000BB40836007E094F85C30A06D03F01F0303
:100EF00001FA03F34360206890424DD0A8424BD0E2
:100F0000B04249D0404547D0484545D0504543D0F0
:100F1000584541D02D4A183290423DD02C4A90423B
:100F20003AD02B4A1832904236D0294A3032904279
:100F300032D0274A483290422ED0254A6032904221
:100F40002AD0234A7832904226D0214A90329042C9
:100F500022D01F4AA83290421ED01E4A90421BD077
:100F60001C4A1432904217D01A4A2832904213D0A9
:100F7000184A3C3290420FD0164A503290420BD061
:100F8000144A6432904207D0124A7832904203D019
:100F9000104A8C3290420BD1D4E919024260E06EC3
:100FA00030B1026822F480720260D4E91C0242600F
:100FB000002084F8351084F834006DE610000240FB
:100FC000580002407000024088000240A000024029
:100FD00010040240085402582DE9F05F28B190F83F
:100FE0003510022904D0802141650120BDE8F09F21
:100FF000904C904B0168183C18338E4ADFF83C92B5
:10100000A1428D4CDFF838E28E4FDFF83CB2DFF8BA
:101010003CA28F4D8F4E31D091422FD099422DD08E
:10102000A1422BD0494529D0714527D0B94225D0BE
:10103000DFF810C20CF1180C61451FD0DFF808C2B0
:10104000ACF1600C614519D0DFF8FCC1ACF1480C83
:10105000614513D0DFF8F0C1ACF1300C61450DD023
:10106000DFF8E4C1ACF1180C614507D0594505D053
:10107000514503D0A94201D0B1422CD1DFF8B4C10F
:101080004FF0040880F83580ACF1180C61451DD094
:1010900091421BD0994219D0A14217D0494515D091
:1010A000714513D0B94211D06648183081420DD035
:1010B00065486038814209D063484838814205D08C
:1010C00061483038814201D05F481838086820F004
:1010D00001000860ABE0D1F800C02CF00E08DFF88A
:1010E00054C1C1F80080ACF1180C0168614527D0EB
:1010F000914225D0994223D0A14221D049451FD009
:1011000071451DD0B9421BD0DFF838C10CF1180C65
:10111000614515D0DFF830C1ACF1600C61450FD0EE
:10112000DFF824C1ACF1480C614509D0DFF818C1E3
:10113000ACF1300C614503D0DFF80CC1ACF1180CF8
:10114000D1F800C02CF0010CC1F800C0DFF8E48039
:101150004FF0010C0168A8F11808414546D09142B2
:1011600044D0994242D0A14240D049453ED0714539
:101170003CD0B9423AD0334A1832914236D0324A42
:10118000603A914232D0304A483A91422ED02E4AAB
:10119000303A91422AD02C4A183A914226D05945E9
:1011A00024D0514522D0A94220D0B1421ED02A4A93
:1011B00091421BD0284A1432914217D0264A283235
:1011C000914213D0244A3C3291420FD0224A5032ED
:1011D00091420BD0204A6432914207D01E4A7832A5
:1011E000914203D01C4A8C32914218D1016E0A6898
:1011F00022F480720A6090F85C20816D02F01F0278
:101200000CFA02F24A60D0E919124A60C16E31B19B
:101210000A6822F480720A60D0E91C124A60002237
:10122000016D80F835C080F8342001B18847002076
:10123000DCE6000028000240580002407000024036
:1012400088000240A000024070040240880402406E
:10125000A0040240B80402400854025870B5044685
:1012600000F072FD0546601C02D00448007804447A
:1012700000F06AFD401BA042FAD370BD18000024A4
:1012800070B5044690F89800022804D0D4F89C0069
:1012900040F008000DE02068D0F8C03013F07C5F0B
:1012A0000BD0D0F8C4309B020CD5D4F89C0040F48D
:1012B0000070C4F89C00012070BDD4F89C0040F080
:1012C0002000F6E7D0F8C400C0F3044520462B46C2
:1012D000FFF728FC21680120A840C1F8D000C4F81D
:1012E0009400002070BD704770477047F0B590F8CB
:1012F00098400025022C04D0D0F89C1041F0080141
:101300002BE040294FF0004605D0412929D0046D3B
:101310008C4219D942E00468D4F8A07017F4FE0F8B
:1013200012D0D4F8A4707F0613D0D4F8A470FF01B3
:1013300005D5D4F8A070B6EBD77F00D10125D4F83D
:10134000A470466F446C24E0D0F89C1041F020015A
:1013500003E0D0F89C1041F48071C0F89C1001208B
:10136000F0BD0468D4F8B07017F4FE0FECD0D4F8D8
:10137000B4707F06EDD0D4F8B470FF0105D5D4F871
:10138000B070B6EBD77F00D10125D4F8B470866F6A
:10139000C46CC7F305273D446C4302E0446DC66F3F
:1013A0004C4306EB8404266816F080465660266897
:1013B00036D026F060461660D4F800C000262F4FC5
:1013C0000CF0005CC2F808C0D4F800C00CF0004C6F
:1013D000C2F810C0B4F804C01FFA8CFCC2F81CC0DC
:1013E000D4F804C00CF4702CC2F80CC0D4F804C0BB
:1013F0000CF4801CC2F814C0D4F804C00CF4001C17
:10140000C2F818C0D4F804C0CCF3066CC2F820C0EF
:10141000D4F804C008344FEADC7CC2F824C008E0E9
:10142000C6F38A46C7E700BF14F806C003F806C033
:10143000761CD2F80CC007EB1C4C9CF800C0B445DD
:10144000F2D840290AD041290CD020294FF00102BE
:101450000CD200688A40C0F898200DE00068C0F8FF
:10146000A85009E00068C0F8B85005E0006801F035
:101470001F018A40C0F89C200020F0BD18720008AF
:10148000704700002DE9FF5FDFF80CB304460BF155
:101490000401DBF8000025680F68AA468007D5F82C
:1014A0005090696DD5F850806E6D2A6DD5F854C096
:1014B0002B6D00EA8770009009F470496F6D286DFC
:1014C00001EA09010191DAF85410DAF85490DAF8D7
:1014D000505008F00F0806EA0806029602F0F002E3
:1014E00003F071536FEA09061F4000F060700CEAC8
:1014F000020CCDF80CC0F20501EA00090CD4E84357
:10150000C00509D400214FF48073CAF85030CBF8DD
:1015100000102046FFF7B4FF700512D4E8434005E1
:101520000FD4206800234FF48068D0F8DC20D0F876
:10153000E410C0F85080CBF800301140204600F095
:10154000DDFADFF858A2009850B12268830F00EA54
:101550000A001065CBF8003020460099FFF7C3FE63
:10156000019850B12268830F00EA0A001065CBF899
:1015700000302046019900F0C3FA029850B1226869
:10158000830F00EA0A001065CBF80030204602996C
:1015900000F082FA039850B12268830F00EA0A0033
:1015A0001065CBF800302046039900F087FA30052B
:1015B0000CD4E843000509D4236800204FF40062EE
:1015C0001A65CBF80000204600F09BFAB00512D453
:1015D000E84380050FD4206800234FF40078D0F84A
:1015E000D820D0F8E010C0F85080CBF8003011407F
:1015F000204600F084FA30030CD4E843000309D4F9
:10160000236800204FF400221A65CBF80000204622
:1016100000F040FAF0030CD4E843C00309D4236877
:1016200000204FF480321A65CBF80000204600F00D
:1016300064FA70030CD4E843400309D42268002004
:101640004FF480231365CBF80000204600F054FAD5
:10165000B0030FD4E84380030CD4236800204FF478
:1016600000321A65CBF80000D4F89C0040F08000EE
:10167000C4F89C00B9F1000F0BD022684FEA9973AF
:1016800009EA0A001065CBF8003049462046FFF70A
:101690002CFE5FB12268BB0F07EA0A001065CBF889
:1016A0000030D4F89C003843C4F89C003C492068C2
:1016B000884268D1606881468068800763D0D9F825
:1016C0002060D9F82410D9F82080D9F82400D9F85E
:1016D00020C0D9F82470D9F82030D9F82450D9F88E
:1016E000202003F4FC4306F00F0AD9F824601D40C3
:1016F000D9F824B008F030080CF4C07C02F4F022D1
:1017000011EA0A0100EA080807EA0C0706EA0206DD
:10171000D9F820A004D0C9F82010204600F0E9F93B
:10172000B8F1000005D0616808624146204600F02B
:10173000E2F96FEA0B0040060ED46FEA0A00400699
:101740000AD460684021C36BC26B01622046190C49
:1017500002F03F0200F0CEF92FB16068076239460F
:10176000204600F0C5F935B160680562D4F89C00E8
:101770002843C4F89C0036B160680662D4F89C0027
:101780003043C4F89C00D4F89C00002802D02046C6
:10179000FFF7AAFDBDE8FF9F10A80040FFFFCF3F65
:1017A00000A000402DE9F04194B08D494C22044640
:1017B0006846FEF7C0FD64B18A4D2068A84202D198
:1017C00000F58070606094F898004FF0000820B138
:1017D00008E0012014B0BDE8F081204684F899802B
:1017E00000F002F92068816921F01001816100F0A8
:1017F000ABFA0327064604E000F0A6FA801B0A288D
:1018000011D8206880690007F6D42068816941F00A
:101810000101816100F098FA06460DE000F094FAAB
:10182000801B0A2808D9D4F89C0040F00100C4F8B5
:101830009C0084F89870CCE720688069C007EDD0E0
:101840002068816941F002018161207C01282068C3
:10185000816937D041F040018161607C01282068B6
:10186000816932D021F480418161A07C0128206807
:1018700081692DD041F4805181612068A26881691D
:1018800021F44071114381612068816921F0A40134
:1018900081612068016921F010010161E06801287F
:1018A00019D010B302281BD02068816941F0800153
:1018B00081612068016941F010010161E06803283D
:1018C0000ED012E021F04001C6E741F48041CBE7A1
:1018D00021F48051D0E72068816941F0040103E0E0
:1018E0002068816941F020018161207E6FF0FF0254
:1018F000D4E90773A68A1102400602EB0727A0F17C
:101900000070384327685B1E184301EB06463043DE
:10191000F861A068B0F5407F11D104F12800A68CD1
:101920006FF00F0C89C801EB0641401E02EB032249
:10193000104322680CEB071318430843D060206E55
:1019400030B12068626ED0F8C0101143C0F8C010EA
:10195000D4E917126846D14209D02168A36E51F824
:10196000C82F50F8233022F007021A430A60216C76
:1019700049B12168626C51F8BC3F50F8226023F0F5
:10198000070232430A60A16C51B12168E36C51F83F
:10199000BC2F50F8233022F0700242EA03120A6092
:1019A000216D51B12168626D51F8BC3F50F82200A1
:1019B00023F4E06242EA002008602068A84204D1D3
:1019C0006068816821F003018160C4F8948001217E
:1019D000C4F89C8084F898102046FEF7BFFFF9E613
:1019E0002872000800A0004010B5B6B004461421CB
:1019F00030A8FEF7B9FCC0216846FEF7B5FC2249C5
:101A0000206888423DD100204FF40041CDE900100C
:101A10004A0368461C9200F00FFC08B1FEF782FFF3
:101A20001A48016841F480710160006800F4807018
:101A3000359016480C38016841F0010101600068DA
:101A400000224FF4C05100F001003590022009231C
:101A50003493CDE93010CDE932200D4830A900F0A3
:101A600051F800220221132000F034FA132000F074
:101A700023FA00220221152000F02CFA152000F094
:101A80001BFA36B010BD000000A00040EC44025824
:101A90000000025870470000C90710B508D0054B78
:101AA0004021054AFFF722FC002801D0FEF73AFF4B
:101AB00010BD000010000024BC000024704790F806
:101AC0009810012907D0D0F89C1041F00401C0F80B
:101AD0009C1001207047022180F8981000220168B4
:101AE0008B6923F001038B61C0F89C20104670477E
:101AF000704770477047704770477047704770472E
:101B0000704770472DE9F84F03247D4D00234FF0B7
:101B100001094FF0B04B4FF00F0AE9E009FA03F763
:101B20003A4076D00E7906F00306012E01D0022E3F
:101B300018D1D0F808C04FEA430ECE6804FA0EF868
:101B40002CEA080C06FA0EF646EA0C068660D0F877
:101B500004C00E792CEA070CC6F300169E4046EA34
:101B60000C0646600E79F643B6070BD0C6684FEAFE
:101B700043088F6804FA08FC26EA0C0607FA08F7FF
:101B80003743C7600E7906F00306022E12D1DE0835
:101B90000F694FEA437C00EB8606B646366A4FEA89
:101BA000DC6C0AFA0CF807FA0CF726EA0806374349
:101BB000CEF820700F7906684FEA430807F0030754
:101BC00004FA08FC07FA08F726EA0C063743076010
:101BD0004E6816F4403F1CD04A4E376847F0020763
:101BE000376036689F0706F00206009623F003066A
:101BF00006F1B046B6463F0FD6F80864DFF8088114
:101C00000AFA07FC404526EA0C0603D14FF0000C07
:101C100041E06CE0DFF8F4C0604502D14FF0010C08
:101C200039E0DFF8ECC0604502D14FF0020C32E041
:101C3000DFF8E0C0604502D14FF0030C2BE0DFF885
:101C4000D8C0604502D14FF0040C24E0DFF8CCC0CE
:101C5000604502D14FF0050C1DE0DFF8C4C06045BF
:101C600002D14FF0060C16E0DFF8B8C0604502D193
:101C70004FF0070C0FE0DFF8B0C0604502D14FF025
:101C8000080C08E0DFF8A4C0604502D14FF0090C51
:101C900001E04FF00A0C0CFA07FC4CEA060CCEF8F7
:101CA00008C44F68DBF80060FF0226EA020600D590
:101CB00016435F46CBF80060D1F804C0DBF804603F
:101CC0005FEA8C2C26EA020600D516437E606E6819
:101CD0004F6826EA0206BF0300D516436E602E68E1
:101CE0004F6826EA0206FF0300D516432E605B1CF0
:101CF0000A6832FA03F67FF411AFBDE8F88F0000EE
:101D000080000058F44402580000025800040258B1
:101D100000080258000C0258001002580014025823
:101D200000180258001C02580020025800240258D3
:101D30000AB1816170470904FBE7000001480068AF
:101D4000000C70470010005C01488068704700007C
:101D500018000024024881680278114481607047AD
:101D600018000024032010B500F0D4F801F0AEF8FC
:101D70000F4A104914681368C4F3032203F00F03D9
:101D80008A5CC95C02F01F0201F01F01D0400A4AC0
:101D900020FA01F11160094908600F2000F010F8E5
:101DA00008B1012010BD00F079F8002010BD00003E
:101DB000184402589C7200082800002424000024C3
:101DC00070B50D4D04462878A0B14FF47A71B1FB7F
:101DD000F0F00A490968B1FBF0F001F00EFE48B9D5
:101DE000102C07D200222146501E00F073F800206C
:101DF0006C6070BD012070BD180000242400002418
:101E0000F0B5154C4378211D0A1D23600378F3B10A
:101E100043680B60057BC67A817A437B2D07847B00
:101E200045EA0665C77B90F809C0067A90F800E09D
:101E300045EAC14040EA834040EA444040EA074066
:101E400040EA0C2040EA460040EA0E0001E0002093
:101E500008601060F0BD000098ED00E0BFF35F8FF8
:101E6000044800210368034A23F48033036070327E
:101E70001160704724ED00E0074A40F00100064978
:101E800070321060086840F480300860BFF34F8FF4
:101E9000BFF36F8F7047000024ED00E0054808B5E0
:101EA000016841F002010160006800F0020000904A
:101EB00008BD0000F4440258002809DB410900F085
:101EC0001F028900012001F1E0219040C1F80001CA
:101ED000704700000E4BF0B41B680D46C3F302239D
:101EE000C3F10706042E00D90426191D072901D2C3
:101EF000002300E0DB1E012404FA06F19C40491E89
:101F00002940641E994014402143F0BC03F038BFBF
:101F10000CED00E0064900F0070210B54FF6FF0493
:101F20000868044B204040EA02201843086010BDB6
:101F30000CED00E00000FA05134970B50A68D243C1
:101F4000520705D5096801F00701814213D118E055
:101F50000A6822F0070202430A60FFF7F5FE0A4D05
:101F60004FF47A760446083D07E000BFFFF7ECFE29
:101F7000001BB04201D9012070BD2868C043800415
:101F8000F4D4002070BD00000C48025810B500F0D9
:101F900057FF05490968054AC1F30211515C01F078
:101FA0001F01C84010BD0000204402589C72000868
:101FB000494930B5484C0B1D0A68143409681D683E
:101FC000246802F00303C5F30012C1F30531C4F322
:101FD000CC04002914FB02F200EE102AF8EE400AAD
:101FE00075D03F4A9FED3D1AB7EE000A6BB1DFEDA9
:101FF0003D1A012B01D0022B64D002EE101A116899
:10200000F8EE422A81EEA22A21E0334C283C2368D4
:102010009B0612D5344B246801EE901A1168C4F364
:10202000C104F8EE612AE34001EE903AC1F30801E1
:10203000F8EE611A81EEA22A0BE001EE901ADFEDB4
:102040002B2A00BFF8EE611A116882EEA12AC1F3B3
:10205000080101EE901A1168F8EE611A40EE811A3B
:1020600071EE800A62EE200AC1F3462101EE101AD9
:10207000B8EE411A31EE001AC0EE811ABCEEE11A38
:1020800080ED001A1168C1F3064101EE101AB8EE96
:10209000411A31EE001AC0EE811ABCEEE11A80ED51
:1020A000011A1168C1F3066101EE101AB8EE411A67
:1020B00031EE000A80EE801ABCEEC10A80ED020A01
:1020C00030BD04E001EE901ADFED092ABAE70021E5
:1020D000016041608160F3E7284402580000003944
:1020E000384402580024744A0090D0030024744CF1
:1020F0000024F44A494930B5484C0B1D0A681C3489
:1021000009681D68246802F00303C5F30022C1F3C7
:102110000551C4F3CC04002914FB02F200EE102A8E
:10212000F8EE400A75D03F4A9FED3D1AB7EE000A1F
:102130006BB1DFED3D1A012B01D0022B64D002EE12
:10214000101A1168F8EE422A81EEA22A21E0334CDF
:10215000283C23689B0612D5344B246801EE901A64
:102160001168C4F3C104F8EE612AE34001EE903A2D
:10217000C1F30801F8EE611A81EEA22A0BE001EE2C
:10218000901ADFED2B2A00BFF8EE611A116882EE7B
:10219000A12AC1F3080101EE901A1168F8EE611A44
:1021A00040EE811A71EE800A62EE200AC1F34621E8
:1021B00001EE101AB8EE411A31EE001AC0EE811A83
:1021C000BCEEE11A80ED001A1168C1F3064101EE80
:1021D000101AB8EE411A31EE001AC0EE811ABCEEA8
:1021E000E11A80ED011A1168C1F3066101EE101ABF
:1021F000B8EE411A31EE000A80EE801ABCEEC10A38
:1022000080ED020A30BD04E001EE901ADFED092AEC
:10221000BAE70021016041608160F3E72844025879
:1022200000000039404402580024744A0090D00352
:102230000024744C0024F44A2DE9FE4F0546DFF8D3
:10224000E48350F8081B0024F64FC943019005F1C0
:102250002800264608F12408009008011DD4A86E25
:1022600050B1B0F5801F0CD0B0F5001F0ED0B0F506
:10227000401F1ED001240FE0386840F40030386061
:1022800017E00198022102F0A9FC03E00098022166
:1022900002F034FD04000CD026462888C043C00557
:1022A00023D4A86D05281ED2DFE800F00C11161B00
:1022B0001B00AA6ED8F8001021F440111143C8F891
:1022C0000010EAE7386840F40030386009E001980F
:1022D000002102F083FC03E00098002102F00EFDD3
:1022E000044674B100E0012426462888C0438005D6
:1022F00028D4E86D80281ED00CDC90B140280ED187
:1023000014E0AA6DD8F8001021F007011143C8F8B5
:102310000010EAE7C02813D0B0F5807F10D0012468
:102320000FE0386840F40030386009E0019800217F
:1023300002F054FC03E00098002102F0DFFC0446A8
:102340009CB126462888DFF8DC92C04309F12C09AD
:1023500040052CD4D5F8A800B0F5800F20D00DDCB6
:10236000A0B1B0F5001F0FD115E0EA6DD8F800104C
:1023700021F4E0711143C8F80010E3E7B0F5C00F95
:1023800013D0B0F5000F10D001240FE0386840F4EE
:102390000030386009E00198002102F01FFC03E0E2
:1023A0000098002102F0AAFC04467CB12646288849
:1023B000C04300052DD4D5F8AC00B0F1007F21D08A
:1023C0000EDCA8B1B0F1807F10D116E0D5F8A820BE
:1023D000D9F8001021F460011143C9F80010E6E7B4
:1023E000B0F1407F13D0B0F1806F10D001240FE026
:1023F000386840F40030386009E00198002102F0AC
:10240000EDFB03E00098002102F078FC044674B173
:1024100026462868C04380011FD4E86CD8B1102834
:102420000FD0202812D0302815D0012414E0D5F880
:10243000AC20D9F8001021F0E0611143C9F8001078
:10244000E7E7386840F40030386004E00198022182
:1024500002F0C4FB044674B126462888C043C00479
:102460002BD4286EB0F5005F20D00DDCA0B1B0F504
:10247000805F0FD115E06B48EA6C2030016821F0D5
:10248000300111430160E8E7B0F5405F13D0B0F5CB
:10249000804F10D001240FE0386840F400303860DD
:1024A00009E00198002102F099FB03E00098002167
:1024B00002F024FC04468CB126462888C0438004E0
:1024C00029D4686EB0F5403F23D010DC08B3B0F5D6
:1024D000803F14D0B0F5003F0FD115E02A6ED8F838
:1024E000001021F4E0411143C8F80010E5E7B0F511
:1024F000802F0ED0B0F5A02F0BD001240AE0019858
:10250000012102F06BFB03E00098012102F0F6FBD1
:10251000044694B126462888C04340042AD4D5F8FE
:10252000B000B0F1405F23D010DC08B3B0F1805FA1
:1025300014D0B0F1005F0FD115E06A6ED8F800102A
:1025400021F4E0211143C8F80010E4E7B0F1804F16
:102550000ED0B0F1A04F0BD001240AE00198012168
:1025600002F03CFB03E00098012102F0C7FB0446A7
:1025700074B126462888C04300041FD4286FD8B100
:10258000B0F1805F0ED0B0F1005F10D0012414E0F4
:10259000D5F8B020D9F8001021F0E0411143C9F876
:1025A0000010E7E7386840F40030386004E0019834
:1025B000012102F013FB044674B126462868C0438B
:1025C000C0011ED4A86CD0B101280ED0022811D0B1
:1025D000032814D0012413E02A6FD8F8001021F04A
:1025E00040511143C8F80010E8E7386840F4003063
:1025F000386004E00198022102F0F0FA0446ACB120
:1026000026462868DFF81CB0C043ABF11C0B400223
:1026100052D40548016841F480710160FFF794FBD2
:10262000824611E02C44025800480258FA48AA6C2D
:10263000016821F0030111430160E2E7FFF784FB29
:10264000A0EB0A00642835D8F4480068C005F5D529
:102650008CBBDFF8C4A3B5F8B4100AF1240ADAF889
:10266000000001F4407100F44070884211D0DAF8A3
:102670000010DAF8002021F4407142F48032CAF8E8
:102680000020DAF8002022F48032CAF80020CAF8CC
:102690000010D5F8B400B0F5807F1AD1FFF754FBD5
:1026A000029012E0FFF750FB0299411A41F2883084
:1026B00081420AD9032426462878DFF85CA3C04368
:1026C0000AF1080AC00721D03CE0DAF800008007D0
:1026D000E8D5D5F8B410C1F30120032858460DD031
:1026E000016821F47C510160B5F8B420DAF80010DB
:1026F000C2F30B021143CAF80010DDE7C84A0368B1
:1027000002EA111223F47C511143ECE7E86F182818
:1027100016D005DCA0B1082808D0102804D10AE0A2
:1027200020280DD028280BD001240AE0019801218F
:1027300002F054FA03E00098012102F0DFFA0446A7
:1027400064B126462878C04380071ED4A86F0628A7
:1027500019D2DFE800F0160C11161616EA6FDAF837
:10276000001021F038011143CAF80010EAE701987F
:10277000012102F033FA03E00098012102F0BEFAD1
:1027800004467CB100E0012426462878C043400777
:102790001FD4D5F89400062819D2DFE800F0160CF3
:1027A00011161616AA6FDAF8001021F0070111436E
:1027B000CAF80010E9E70198012102F00FFA03E0DE
:1027C0000098012102F09AFA0446A4B100E0012425
:1027D00026462878C04380062BD4D5F89000B0F167
:1027E000405F24D011DC10B3B0F1805F15D0B0F1A0
:1027F000005F10D116E0D5F89420D9F8001021F030
:1028000007011143C9F80010E3E7B0F1804F0ED083
:10281000B0F1A04F0BD001240AE00198002102F092
:10282000DDF903E00098022102F068FA044694B151
:1028300026462878C04340062BD4D5F89C00B0F536
:10284000406F24D011DC10B3B0F5806F15D0B0F517
:10285000006F10D116E0D5F89020DAF8001021F0C2
:10286000E0411143CAF80010E3E7B0F5805F0ED0F5
:10287000B0F5A05F0BD001240AE00198002102F01E
:10288000ADF903E00098022102F038FA044694B151
:1028900026462878C04300062BD4D5F8A000B0F512
:1028A000C04F24D011DC10B3B0F5005F15D0B0F5E7
:1028B000804F10D116E0D5F89C20D9F8001021F4F3
:1028C000E0511143C9F80010E3E7B0F5004F0ED016
:1028D000B0F5204F0BD001240AE00198002102F04E
:1028E0007DF903E00098022102F008FA044654B191
:1028F00026462878C04300071ED4D5F88400B0F5DA
:10290000805F0AD00FE0D5F8A020D9F8001021F49C
:1029100060411143C9F80010EBE70098022102F072
:10292000EDF900B10126D5F88420DAF8001021F481
:1029300040511143CAF800102878C043C00613D490
:10294000D5F89800B0F5807F05D10098022102F0FB
:10295000D5F900B10126D5F89820D9F8001021F456
:1029600040711143C9F800102868C043000316D411
:10297000D5F8A40038B1B0F5803F09D0B0F5003FDC
:102980000BD001240AE00198002102F027F903E0AE
:102990000098022102F0B2F904468CB1264628685C
:1029A000C043400322D4D5F88800B0F5801F11D071
:1029B000B0F5001F13D0B0F5401F15D0012414E06E
:1029C000D5F8A420D9F8001021F440311143C9F8FA
:1029D0000010E4E7386840F40030386004E0009804
:1029E000012102F08BF904465CB126462868C043F9
:1029F000C00323D4286DA8B1B0F5803F17D00124BF
:102A00001BE0D5F88820DAF8001021F440111143BA
:102A1000CAF80010EAE700004C4402580048025887
:102A2000CFFFFF00386840F40030386004E00198C0
:102A3000022102F0D3F80446E4B126462868C043D8
:102A4000800005D40098022102F058F900B1012657
:102A50002868C04380031BD4D5F88000B0B1B0F51E
:102A6000807F0FD0B0F5007F10D0B0F5407F0DD043
:102A700001240CE05A482A6D016821F48031114389
:102A80000160DBE7386840F400303860ECB326467C
:102A90002868C043C00207D46A6FD8F8001021F03C
:102AA00000411143C8F800102868C043C00008D492
:102AB000D5F8B820DBF8001021F480411143CBF8A1
:102AC00000102868C043800207D4EA6ED8F80010CE
:102AD00021F080711143C8F800102868C0434000FD
:102AE0000CD4DBF8001021F40041CBF80010DBF827
:102AF0000010D5F8BC201143CBF800102868C04363
:102B000008D437486A6D016800E018E021F04051B0
:102B1000114301602868C043000208D4D5F88C2016
:102B2000DAF8001021F440011143CAF800102879A6
:102B30000024C04300F0010020430AD00FE0D5F884
:102B40008020DAF8001021F440711143CAF8001017
:102B50009EE70198002102F041F800B1064628796D
:102B6000C04300F00200204305D10198012102F08A
:102B700035F800B106462879C04300F00400204330
:102B800005D10198022102F029F800B10646287902
:102B9000C04300F00800204305D10098002102F056
:102BA000ADF800B106462879C04300F0100020437C
:102BB00005D10098012102F0A1F800B1064628795C
:102BC000C04300F02000044304D10098022102F029
:102BD00095F800B916B10120BDE8FE8F0020FBE793
:102BE0004C4402582DE9F05F04000F467ED0DFF818
:102BF0003882D8F8000000F00F00B8420CD2D8F8A4
:102C0000001021F00F013943C8F80010D8F8000077
:102C100000F00F00B84269D12078844D40070AD5F2
:102C20002069296801F07001884204D9296821F0DF
:102C300070010143296020787C4E361D00070AD5BB
:102C40006069316801F07001884204D9316821F06F
:102C50007001014331602078C0060AD5A06931684F
:102C600001F4E061884204D9316821F4E061014354
:102C700031602078DFF8B4B180060BF1080B0CD579
:102C8000E1695846DBF8002002F07002914204D955
:102C9000026822F070020A430260207880070AD599
:102CA000E068296801F00F01884204D9296821F001
:102CB0000F01014329602078C0073ED05B49A2681C
:102CC0002868183920F47060104328606068022872
:102CD00018D0032819D00968012819D049070029FC
:102CE0004ADADFF848A1AAF1080A00E044E0DAF87D
:102CF000002022F007020243CAF80020FFF724F860
:102D0000814612E009688903E9E709688901E6E775
:102D1000C905E4E7FFF718F8A0EB090141F2883094
:102D2000814202D90320BDE8F09F6168DAF8000013
:102D300000F03800B0EBC10FECD1207880070AD545
:102D4000E068296801F00F01884204D2296821F067
:102D50000F0101432960D8F80010404601F00F012F
:102D6000B9420BD9016821F00F01394301600068B5
:102D700000F00F00B84201D00120D4E720784007CE
:102D80000AD52069296801F07001884204D22968B7
:102D900021F0700101432960207800070AD560699D
:102DA000316801F07001884204D2316821F070016D
:102DB000014331602078C0060AD5A069316801F46A
:102DC000E061884204D2316821F4E061014331605E
:102DD000207880060CD5E1695846DBF8002002F027
:102DE0007002914204D2026822F070020A4302602B
:102DF00000F06CF80E492A682B68C2F3032203F036
:102E00000F038A5CC95C02F01F0201F01F01D04071
:102E1000084A20FA01F11160074908600748006874
:102E2000BDE8F05FFEF7CCBF002000521844025806
:102E30009C72000828000024240000241C000024A8
:102E400030B500F043F80B4A0B490C4B1568146879
:102E5000C5F3032204F00F048A5C095D02F01F022F
:102E600001F01F01D040064A20FA01F119601060FC
:102E7000084630BD184402589C72000828000024FF
:102E80002400002400B5FFF7DBFF05490968054A67
:102E9000C1F30211515C01F01F01C84000BD0000E8
:102EA0001C4402589C72000800B5FFF7C9FF054991
:102EB0000968054AC1F30221515C01F01F01C840B5
:102EC00000BD00001C4402589C720008454970B5C2
:102ED00045480968434B103B11F0380208D00111F6
:102EE000082A03D0102A0BD0182A0BD0084670BD30
:102EF00019688906FBD51968C1F3C101C84070BDC6
:102F00003A4870BD3749374D18310C1D24350A68D1
:102F1000096826682D6802F0030406F00102C1F377
:102F20000511C5F3CC0515FB02F200EE102AB8EE30
:102F3000400AE9B32F4ADFED2E0AB7EE001A6CB152
:102F4000DFED2D1A012C01D0022C43D002EE101A15
:102F50001068F8EE422A81EEA22A1EE01C68A40640
:102F600011D51B6801EE901A1168C3F3C103F8EE86
:102F7000612AD84001EE900AC1F30800F8EE611A08
:102F800081EEA22A0BE001EE901ADFED1C2A00BFB1
:102F9000F8EE611A106882EEA12AC0F3080001EE73
:102FA000900AF8EE611A40EE201A31EE810A00E034
:102FB00015E022EE000A1068C0F34620401C00EE27
:102FC000900AF8EE600A80EE201ABCEEC10A10EEFC
:102FD000100A70BD01EE901ADFED092AD8E7002033
:102FE00070BD0000104402580090D00300127A0017
:102FF00000000039304402580024744A0024744C04
:103000000024F44A2DE9F05F04007DD0FF4F2078C2
:10301000FE4D1837DFF8F493103DC00748D0D9F8BB
:103020000000396800F03800102815D0182803D1A6
:1030300001F0030002280FD06068B0F5803F12D085
:1030400010B1B0F5A02F18D0286820F48030286087
:10305000286820F4802009E02868800328D560686B
:103060000028D2D024E0286840F4803028606068CE
:1030700088B1FEF769FE064609E0286840F4802022
:103080002860F0E7FEF760FE801B64286FD8286890
:103090008003F7D50CE0FEF757FE064605E000BFBB
:1030A000FEF752FE801B6428F0D828688003F7D40E
:1030B000207841F20308D54E0C3E800769D5D9F837
:1030C0000000396810F038000ED0182801D18807A8
:1030D0000AD0E06890B3296821F019010143296002
:1030E000FEF732FE824631E02868400702D5E068EC
:1030F00000288AD0E168286820F019000843286079
:10310000FEF722FE824607E0DFE000BFFEF71CFE6E
:10311000A0EB0A000228B9D828684007F6D500BFFE
:10312000FEF70CFE40451BD82069402812D03168BC
:1031300021F47C3141EA003030602AE018E000BF21
:10314000FEF702FEA0EB0A0002289FD8286840077D
:10315000F6D5E5E7306820F47C3040F40030EBE74A
:10316000207C316821F0FE4141EA0060E4E70DE196
:10317000286820F001002860FEF7E6FD824605E0A1
:10318000FEF7E2FDA0EB0A0002288DD82868400770
:10319000F6D42078C0065DD5D9F80000DFF86CB20F
:1031A000396800F03800ABF1040B082810D018285B
:1031B00003D101F0030001280AD0E0690028286843
:1031C00038D040F080002860FEF7BEFD824623E044
:1031D0002868C00523D5E069802876D11FE0206AE1
:1031E000202821D0316821F0F84141EA8060306028
:1031F00030E000BF94F82010DBF8002022F07C5271
:1032000042EA0161CBF8001024E000BFFEF79CFD0C
:10321000A0EB0A00022898D82868C005F6D5FEF76A
:103220008DFD4045E6D8DAE7306820F0F84040F000
:103230008040DCE720F080002860FEF785FD064630
:1032400005E000BFFEF780FD801B02289DD828689E
:10325000C005F7D42078000729D56C48616964302F
:1032600000298046016811D041F001010160FEF79C
:103270006BFD064605E000BFFEF766FD801B0228D9
:10328000C9D8D8F800008007F6D510E021F0010178
:103290000160FEF759FD064605E000BFFEF754FD4C
:1032A000801B022872D8D8F800008007F6D4207856
:1032B000800623D5A0690028286810D040F48050EB
:1032C0002860FEF741FD064605E036E1FEF73CFDCD
:1032D000801B02285AD828688004F7D50EE020F415
:1032E00080502860FEF730FD064604E0FEF72CFD16
:1032F000801B02284AD828688004F7D42078400729
:103300004FD5DFF80C81D8F8001041F48071C8F86F
:103310000010FEF719FD064605E000BFFEF714FD9C
:10332000801B642832D8D8F80000C005F6D5374E87
:10333000A068603601280AD008B1052813D030688B
:1033400020F001003060306820F0040002E03068B6
:1033500040F001003060A06841F2883A90B1FEF779
:10336000F3FC80460AE0306840F004003060EEE78D
:10337000FEF7EAFCA0EB0801514507D8306880074A
:10338000F6D50EE0FEF7E0FC804607E084E000BFE3
:10339000FEF7DAFCA0EB080151457DD830688007C4
:1033A000F6D4606AB0B3DFF86480D9F8001008F191
:1033B00020084FF6F87B08F10409C1F3C201032984
:1033C000A8F1040A69D00228286820F080702860DB
:1033D00003D0FEF7B9FC044684E0FEF7B5FC0646D0
:1033E00005E000BFFEF7B0FC801B022877D82868F4
:1033F0008001F7D4E26A40F2F331386854F8283F8C
:10340000884340EA02101843386004E01044025830
:1034100000480258B5E0217B434622894FF4FE0C58
:10342000208A4FF0FE474902267D521E401EA1F51C
:103430000071C2F308088AB2761E0CEA004042EA24
:1034400008020243504607EA06610A431A60DAF8A6
:10345000002022F00102CAF80020D9F80020266AD4
:1034600022EA0B0242EAC602C9F80020DAF800108C
:10347000A26921F00C011143CAF800100168E26949
:1034800021F0020111430160016841F480310160C3
:10349000016841F4003101E021E027E001600168AA
:1034A00041F480210160016841F001010160286858
:1034B00040F080702860FEF747FC044605E000BF3E
:1034C000FEF742FC001B022809D828688001F7D5C6
:1034D00057E000BFFEF738FC001B022802D903208A
:1034E000BDE8F09F28688001F4D44AE039680128DB
:1034F000D8F8000021D0A26A01F0030393421CD146
:10350000E26AC1F305118A4217D1216BC0F30802A8
:10351000491E8A4211D1616BC0F34622491E914275
:103520000BD1A16BC0F30642491E914205D1E16B5C
:10353000C0F30660491E814201D00120D0E7A16C92
:103540004E46D9F80000C0F3CC00814219D0DAF819
:103550000000554620F00100CAF80000FEF7F4FB19
:103560004FEA0007FEF7F0FBB842FBD0A26C3068D0
:1035700020EA0B0040EAC2003060286840F00100F9
:1035800028600020ACE700002DE9F047040029D0B6
:10359000594A4FF000092068584B594D9042C4F8E1
:1035A000289006D0984204D0A84202D0E1680F29A2
:1035B00018D8E1684FF0010AE76B0831C9080AEB37
:1035C00057167143904205D0984203D0A84201D0CB
:1035D000082907D8904203D0984201D0A84204D1CC
:1035E000102902D90120BDE8F08794F8810020B9A4
:1035F000204684F8809000F085F8022084F881004D
:103600002068016821F0010101602068A1698268D9
:10361000B1F1806F02F4F81110D16268B2F5800F39
:1036200001D01AB10AE0A26B22B107E0A26BB2F19D
:10363000805F03D1026842F48052026060684002F9
:1036400009D5E068072806D32068236D026822F4B4
:1036500080721A4303E02068026822F480720260DC
:10366000A66AE069E26B25683043E3680A431043C9
:103670001843A860D4E90D02D4E90581636A25697D
:103680001843D4F820C00A43266810432843A56D88
:10369000D4E90172D4E9123140EA080040EA0C0092
:1036A00038430843104318432843F060606868B902
:1036B0002068816821F4C05141F400618160206874
:1036C000816821F4C06141F4806181602068016DEE
:1036D00021F0010101656068400206D52068626D35
:1036E000C16821F000411143C160C4F8849084F89E
:1036F00081A0002077E70000003001400038004042
:10370000003C00402DE9F041B6B00646142130A837
:10371000FCF72AFEC0216846FCF726FE316800242B
:103720003B4A0225DFF8E4800326052791424FF447
:10373000804025D10022189081106846CDE9001202
:10374000FEF77AFD08B1FDF7EDF83048103001685A
:1037500041F480510160006800F480503590D8F841
:10376000001041F00101C8F80010D8F8000030A99D
:1037700000F001003590E020CDE9300525483DE01E
:10378000254A91423FD10022189089146846CDE91C
:103790000012FEF751FD08B1FDF7C4F81B480830D0
:1037A000016841F480410160006800F48040359078
:1037B000D8F8001041F00401C8F80010D8F8001043
:1037C00001F004013591D8F8001041F00201C8F869
:1037D0000010D8F8000032AA30A900F0020035909D
:1037E0000620CDE9300582E8D0000C48FEF78AF9C2
:1037F0004FF48060CDE93005094830A932AA82E84B
:10380000D000FEF77FF936B0BDE8F081E044025801
:103810000030014000000258003800400008025803
:10382000000402582DE9F84F0446006816468A46FF
:103830000021984694F8802000F1300B0091012A75
:103840000CD0012784F88070FEF77EFA814694F848
:1038500081000025012804D0022034E00220BDE8C8
:10386000F88FBAF1000F2DD066B3A1680420C4F818
:1038700064A0A4F8686084F88100C4F88450A4F8B7
:103880006A60E565A4F86050A4F86250B1F5C02FF5
:1038900025676567206819D0C16821F4C02141F40B
:1038A0008021C160206841686FF30F01314341609E
:1038B0002068016841F0010101606068B0F5800F87
:1038C00009D00DE0012084F88050C8E7016821F498
:1038D00000610160E6E72068016841F40071016061
:1038E000E0680F2823D948F2080600BFB4F86A0040
:1038F00088B32068416931420BD0006B616E08606B
:10390000606E001D6066B4F86A00401EA4F86A008C
:10391000ECE7FEF719FAA0EB0901414503D3B8F132
:10392000FF3FE3D058E0B8F1000FDFD154E00728A3
:103930001FD841E020684069C0070DD0BBF80000E7
:10394000616E0880606E801C6066B4F86A00401E7C
:10395000A4F86A000DE033E0FEF7F6F9A0EB0901E8
:10396000414503D3B8F1FF3F03D035E0B8F1000F74
:1039700032D0B4F86A000028DCD121E02068416927
:10398000C9070CD090F83000616E0870606E401C62
:103990006066B4F86A00401EA4F86A000CE0FEF706
:1039A000D3F9A0EB0901414503D3B8F1FF3F03D0A0
:1039B00012E0B8F1000F0FD0B4F86A000028DDD192
:1039C000204601F03BFA84F88170D4F8840084F832
:1039D000805080B1012042E7204601F02FFAD4F850
:1039E000840084F8805040F48070C4F8840084F827
:1039F0008170032033E7009831E7401EB0F1807FEB
:103A000010B501D3012010BD4FF0E02460610F21FB
:103A1000601702F0B5F90020A0610721216110BDF7
:103A200070477047704700002DE9F04390F83C2044
:103A3000012A42D0012280F83C2051F80C4BDFF8DB
:103A400080804FF0000991E8680051E9022723F4D3
:103A50004073B1F80CC03B43CF6923F48063134338
:103A6000026823F40063234323F4805343EA0503ED
:103A700023F4005343EA060323F4804343EA070395
:103A80000C3923F47023424543EA0C4302D00D4C19
:103A9000A2420CD18D8C23F47006D1E9073446EA9A
:103AA000055121F08071194321F0007323435364C1
:103AB00080F83C900020BDE8F0830220FBE7000086
:103AC0000000014000040140F0B590F83C20012ABC
:103AD0003BD01F4E012480F83C40022280F83D205C
:103AE00002681C4D5368B242D2F808C001D0AA4205
:103AF00003D14F6823F470033B430F6823F0700336
:103B00001F4357600268B24213D0B2F1804F10D009
:103B1000114B9A420DD0114B9A420AD0104B9A4247
:103B200007D0AA4205D00F4B9A4202D00E4B9A42C0
:103B300004D189682CF0800319439160002180F83A
:103B40003D4080F83C100846F0BD0220F0BD00006A
:103B50000000014000040140000400400008004053
:103B6000000C0040001800400040014010B5040067
:103B700003D094F83D0010B107E0012010BD0020F3
:103B800084F83C00204600F023F8022084F83D0031
:103B90002068211D01F036FB012084F8480084F8DC
:103BA0003E0084F83F0084F8400084F8410084F827
:103BB000420084F8430084F8440084F8450084F807
:103BC000460084F8470084F83D00002010BD000046
:103BD00008B500681149884209D11148016841F0CF
:103BE00001010160006800F00100009008BD0D496E
:103BF0008842FBD10A480838016841F01001016091
:103C000000680022012100F0100000903620FEF72D
:103C100061F9BDE808403620FEF74EB900000140CA
:103C2000F04402580010004070B5044690F83C0083
:103C30000025012814D03A4B012684F83C6002206C
:103C400084F83D0022689068184020F47F4090601E
:103C5000086870282FD010DC10F00F0F03D022E07E
:103C60004FF0020070BD4FEA2012072A1BD2DFE896
:103C700002F0535353534B394100B0F1101F4BD056
:103C800009DCB0F5805F0FD0B0F5005F1ED0B0F555
:103C9000801F08D140E0A0F5801120393CD01029C8
:103CA0003AD0202938D0012584F83D60002084F8DE
:103CB0003C00284670BD4A682068D1E9021301F033
:103CC00010FB2068816841F0770109E04A682068AC
:103CD000D1E9021301F005FB2068816841F48041BD
:103CE0008160E1E7CA684968206801F0A9FC2068A2
:103CF000502106E0CA684968206801F0B2FC2068DB
:103D0000602101F0F7FACFE7CA684968206801F03E
:103D100097FC20684021F4E7226801461046F0E74E
:103D200088FFCEFF704770B5044600680025016922
:103D3000C943890715D4C168C943890711D4EA1E4C
:103D4000026101212177206880698007204602D026
:103D5000FFF7E8FF04E000F0CFF8204600F091F90B
:103D6000257720680169C943490717D4C168C94349
:103D7000490713D402216FF0040202612177206801
:103D8000806910F4407F204602D0FFF7CBFF04E0AB
:103D900000F0B2F8204600F074F925772068016938
:103DA000C943090716D4C168C943090712D40421BD
:103DB0006FF00802026121772068C0698007204601
:103DC00002D0FFF7AFFF04E000F096F8204600F0C5
:103DD00058F9257720680169C943C90617D4C16815
:103DE000C943C90613D408216FF01002026121777C
:103DF0002068C06910F4407F204602D0FFF792FF90
:103E000004E000F079F8204600F03BF925772068BF
:103E10000169C943C90708D1C168C943C90704D1A9
:103E2000891E0161204600F0B5F920680169C94387
:103E3000090609D4C168C943090605D46FF0800199
:103E400001612046FFF7EDFD20680169C943C905FE
:103E500009D4C168C943090605D46FF480710161B2
:103E60002046FFF7DDFD20680169C943490609D4F2
:103E7000C168C943490605D46FF04001016120467D
:103E800000F096F920680169C94389060BD4C1681E
:103E9000C943890607D46FF0200101612046BDE8BF
:103EA0007040FFF7BFBD70BD10B586B00446142149
:103EB0006846FCF759FA0D492068884214D10C482D
:103EC000016841F01001016000680221002200F049
:103ED00010000590032301244FF428508DE81F00A3
:103EE00004486946FDF70EFE06B010BD0000014013
:103EF000E044025800100258704770B5044690F82C
:103F00003C0000260D4601280BD0012084F83C001F
:103F10000C2A4AD007DC82B1042A20D0082A06D114
:103F200031E0022070BD102A53D0142A63D001263C
:103F3000002084F83C00304670BD206801F0E4F9B0
:103F40002068816941F0080181612068816921F060
:103F50000401816120682A698169114311E02068A8
:103F600001F026FA2068816941F4006181612068CE
:103F7000816921F48061816120682969826942EA4E
:103F800001218161D4E7206801F05EFA2068C169EF
:103F900041F00801C1612068C16921F00401C161DB
:103FA00020682A69C169114311E0206801F098FA7C
:103FB0002068C16941F40061C1612068C16921F4D0
:103FC0008061C16120682969C26942EA0121C16139
:103FD000AEE7206801F0C0FA2068416D41F00801A9
:103FE00041652068416D21F00401416520682A691E
:103FF000416D114311E0206801F0E8FA2068416D3D
:1040000041F4006141652068416D21F480614165A2
:1040100020682969426D42EA0121416588E710B5AF
:10402000040003D094F83D0010B107E0012010BD5A
:10403000002084F83C00204600F022F8022084F89A
:104040003D002068211D01F0DDF8012084F84800C2
:1040500084F83E0084F83F0084F8400084F8410072
:1040600084F8420084F8430084F8440084F8450052
:1040700084F8460084F8470084F83D00002010BD15
:104080007047704730B504464FF0020269B1042909
:1040900012D0082917D00C291CD0102921D094F84F
:1040A0004300012824D0012030BD94F83E000128AF
:1040B000F9D184F83E201DE094F83F000128F2D1A8
:1040C00084F83F2016E094F840000128EBD184F8F2
:1040D00040200FE094F841000128E4D184F8412009
:1040E00008E094F842000128DDD184F8422001E084
:1040F00084F843200122206801F0E6F81B4B206879
:104100001B491C4A984209D0884207D0904205D0EA
:10411000194DA84202D0194DA84203D1456C45F46F
:10412000004545642068984212D0B0F1804F0FD00E
:10413000134B98420CD0134B984209D0124B984223
:1041400006D0884204D01149884201D0904207D15C
:1041500081680F4A1140062906D0B1F5803F03D08F
:10416000016841F001010160002030BD0000014004
:10417000000401400040014000440140004801406B
:104180000004004000080040000C004000180040FF
:104190000700010000680449884203D103484168D0
:1041A000491C4160704700000010004000000024DE
:1041B000704730B590F88410012918D0012280F89A
:1041C00084202421C0F888100022202401680B6874
:1041D0000D6823F0005325F001050D60426601686B
:1041E0000B60C0F8884080F88420104630BD022063
:1041F00030BD7047704770B5044690F884000128C0
:104200001DD0012284F884202420C4F8880020686E
:104210000568026822F0010202602068826822F0CC
:1042200060620A438260204601F04EFA2268202133
:1042300000201560C4F8881084F8840070BD022046
:1042400070BD70B5044690F8840001281DD001228D
:1042500084F884202420C4F8880020680568026857
:1042600022F0010202602068826822F060420A4364
:104270008260204601F028FA226820210020156083
:10428000C4F8881084F8840070BD022070BD7047A7
:10429000704770472DE9F04107680025044640F655
:1042A0000F030226F8693968BA6818420AD18306F2
:1042B0007ED501F0200302F0805C53EA0C0377D036
:1042C000616F74E1CF4BDFF840C3134001EA0C0C7F
:1042D00053EA0C0C6CD05FEAC07C0CD05FEAC15C86
:1042E00009D54FF0010CC7F820C0D4F8907047F002
:1042F0000107C4F89070870709D5D70707D027684A
:104300003E62D4F8906046F00406C4F89060460718
:104310000AD5D60708D0276804263E62D4F89060F4
:1043200046F00206C4F8906006070CD501F020069E
:104330001E4308D0266808233362D4F8903043F037
:104340000803C4F8903003050BD54B0109D5266846
:104350004FF400633362D4F8903043F02003C4F884
:104360009030D4F89030002B3DD0800609D501F074
:10437000200002F08051084303D0616F09B120464C
:1043800088472168D4F890008968490602D410F063
:10439000280F2AD0204601F07DFA20688068400668
:1043A0001ED52068083050E8001F21F0400100E0D1
:1043B00021E040E80012002AF3D1D4F8800078B15F
:1043C00092490165D4F88000FCF706FE00280AD067
:1043D000D4F88000016D00E02046BDE8F0410847B8
:1043E0002046FFF756FFBDE8F0812046FFF751FF5A
:1043F000C4F89050F7E7D4F86CC02023BCF1010F4B
:104400007ED15FEAC06C7BD55FEAC16C78D51020A5
:10441000386220688068400673D5D4F880107C4AE2
:104420000868904234D07A4A1832904230D0784AA4
:10443000303290422CD0764A4832904228D0744A8A
:104440006032904224D0724A7832904220D0704A32
:10445000903290421CD06E4AA832904218D06D4AD9
:10446000904215D06B4A1832904211D0694A3032CE
:1044700090420DD0674A4832904209D0654A603276
:10448000904205D0634A7832904201D0614A90321E
:1044900040680004000CA6D0B4F85C208242A2D987
:1044A000A4F85E00C869B0F5807F2FD0216851E87C
:1044B000000F20F4807041E80002002AF6D1206845
:1044C000083050E8001F21F0010140E80012002AE6
:1044D000F5D12068083050E8001F21F0400140E885
:1044E0000012002AF5D1C4F88C30E566216851E845
:1044F000000F20F0100041E80002002AF6D101E090
:1045000040E00BE0D4F88000FCF7B6FB2667B4F877
:104510005C00B4F85E10401A81B22FE0B4F85C0081
:10452000B4F85E10B4F85E20401A81B2002AB2D00E
:104530000029B0D0226852E8000F20F4907042E8C1
:104540000007002FF6D1344F206800F1080050E832
:10455000002F02EA070240E8002CBCF1000FF3D163
:10456000C4F88C30E5666567206850E8002F22F0BB
:10457000100240E80023002BF6D126672046FFF703
:1045800038FE30E7C60209D5560207D54FF4801031
:1045900038622046BDE8F041FFF77ABE06060AD52C
:1045A00001F0800602F40002164304D0A16F002936
:1045B0007FF412AF17E7420611D54A060FD5204601
:1045C000026852E8001F21F0400142E80014002C6C
:1045D000F6D1C0F88830856700F0F8F803E70202EA
:1045E00006D54A0004D52046BDE8F041FFF74FBE8E
:1045F000C001C6D50029C4DA2046BDE8F041FFF766
:10460000F9BD000001000010200100047F580008DF
:104610001000024010040240FEFFFFEF10B504003E
:1046200003D0D4F8880010B107E0012010BD0020AD
:1046300084F88400204600F027F82420C4F888007D
:104640002068016821F001010160204601F04CF969
:104650000128EBD0A06A10B1204601F057F820687D
:10466000416821F4904141602068816821F02A016D
:1046700081602068016841F0010101602046BDE8C9
:10468000104001F0A7B8000010B5B6B004461421E0
:1046900030A8FBF769FEC0216846FBF765FE1C49A0
:1046A0002068884232D100201E900221CDE90010FE
:1046B0006846FDF7C1FD08B1FCF734F915480168FB
:1046C00041F400310160006800F400303590114879
:1046D0000838016841F00101016000680C210122E5
:1046E00000F001003590022007233493CDE930100B
:1046F000CDE93220084830A9FDF704FA0022022152
:104700002620FDF7E7FB2620FDF7D6FB36B010BDCF
:1047100000440040E8440258000002582DE9F843E4
:104720000446D0F88800984616460D46202802D048
:104730000220BDE8F883A5B19EB10021C4F8901015
:104740002120C4F888001834FDF7FEFA814654F899
:10475000100CA687E6872027183CB0F5805F02D0B2
:1047600003E00120E5E7206910B12E46002510E0A6
:1047700000260EE08021204601F08CFAC0B9DEB19F
:1047800016F8010B21688862B4F85600401EA4F8A0
:104790005600B4F856004B464FF00002CDF80080AA
:1047A0000028E7D14FF04001204601F073FA48B1EC
:1047B000C4F888700320BCE735F8020B2168C0F309
:1047C0000800E0E7C4F888700020B2E77047FEE711
:1047D00010B500F059FF00EE100ADFED070A9FED5B
:1047E000071AB8EE400ABDE8104020EE200A20EE7D
:1047F000010A02F0E3BB0000DB0FC9400000803873
:10480000184800212DE9F041154F01228160042351
:1048100007601F26C1600825017402244174817459
:10482000C661C0E90532C0E908520563C0E90A263D
:10483000C0E90D12C0E90F23C0E91131C0E91332FC
:104840004365C0E916420466C0E91913FCF7AAFFE4
:10485000002803D0BDE8F041FCF764B8BDE8F08162
:1048600000A00040080100242DE9F04186B0142189
:104870006846FBF779FD3048016841F0800101602E
:10488000016801F080010591016841F004010160B7
:10489000016801F004010591016841F00101016026
:1048A000016801F001010591016841F0100101600A
:1048B000016801F010010591016841F002010160F9
:1048C000006801221D4E082100F0020005903046CC
:1048D000FDF72EFA1A4F012210213846FDF728FA6B
:1048E000DFF86080012211464046FDF721FA0022E0
:1048F00040460221FDF71CFA0124694600250820E4
:10490000CDE90004CDE902453046FDF7FBF8102063
:1049100069468DE8310038460394FDF7F3F803202B
:104920006946CDE90004404602940394FDF7EAF895
:1049300006B0BDE8F0810000E044025800080258CB
:1049400000000258001002582DE9F0414FF4800693
:104950001448134F0021F200172554000760C0E9E6
:104960000352C0E90161D300C0E90514C0E9073171
:10497000416252018162C162C0E90D21C1630164DB
:1049800041648164C164016541658165FEF7FCFD98
:10499000002803D0BDE8F041FBF7C4BFBDE8F081BB
:1049A00000300140A80100242DE9F0414FF48006B9
:1049B0001448134F0021F2000D2554000760C0E990
:1049C0000352C0E90161D300C0E90514C0E9073111
:1049D000416252018162C162C0E90D21C16301647B
:1049E00041648164C164016541658165FEF7CCFD68
:1049F000002803D0BDE8F041FBF794BFBDE8F0818B
:104A0000003800403002002410B59AB000241C2168
:104A1000009407A8019402940394049405940694C6
:104A2000FBF7A2FC2C210EA8FBF79EFC32481822B3
:104A3000304942F27F5380E81600C0E903344461F4
:104A40008461FFF793F808B1FBF76CFF4FF48050D7
:104A5000009029486946FFF7E7F808B1FBF762FFC5
:104A60002548FFF7DCFA08B1FBF75CFF224804A9F0
:104A7000049405940694FFF727F808B1FBF752FF5A
:104A80006020CDE907041C48002207A909940A9474
:104A90000B940C940D94FFF730FA08B1FBF742FF2A
:104AA0001548042207A9FFF728FA08B1FBF73AFFD7
:104AB0001148082207A9FFF720FA08B1FBF732FFD7
:104AC0004FF400500E940F9401031094CDE912405E
:104AD00011941494CDE9154107480EA91794189420
:104AE000FEF7A2FF08B1FBF71DFF0348FFF7DCF953
:104AF0001AB010BD00000140B80200243EB51048B5
:104B0000002440F2E7320D4DEF2300940194802100
:104B100002948161C0E90242C0E90053FFF726F820
:104B200008B1FBF7FFFE0648694600940294FEF7C1
:104B3000CBFF002801D0FBF7F5FE3EBD0010004082
:104B4000040300241848002110B5164C0C224FF421
:104B5000E1330460C0E90131C160C0E90412816140
:104B6000C161016241628162FFF758FD08B1FBF744
:104B7000D9FE0D480021FFF764FB08B1FBF7D2FE18
:104B800009480021FFF737FB08B1FBF7CBFE0648C9
:104B9000FFF70FFB002803D0BDE81040FBF7C2BEB3
:104BA00010BD00000044004050030024FEE7FEE773
:104BB000704700B5B1B0C0216846FBF7D5FB0020B7
:104BC00015904FF00041CDE900106846FDF734FB29
:104BD000002801D0FBF7A6FE31B000BD2DE9F0475B
:104BE000454D044689464FF0000A2868C0438007B7
:104BF0000AD0414E283E306820F080603060FDF7DA
:104C0000A3F80746B04608E00120BDE8F08700BFE2
:104C1000FDF79AF8C01B022867D8D8F800000001F9
:104C2000F6D4206829684FF4FE0721F47C313E0257
:104C300041EA00302860207AA389B4F804C0400219
:104C40002D4D2D495B1E227CACF1010C1035091D48
:104C5000A0F5007080B2521ECCF3080C07EA0343A3
:104C600040EA0C00184306EA026210432860086814
:104C7000626920F0C000104308600A68A06922F051
:104C8000200202430A60281D0A6822F010020A600E
:104C900002684FF6F873E4699A4342EAC40202607C
:104CA0000868B9F1000F40F010020A6011D00868DE
:104CB000B9F1010F11D040F400100860D8F80000DD
:104CC000444640F08060C8F80000FDF73DF8054616
:104CD0000DE0086840F40020EFE740F48010ECE7B6
:104CE000FDF732F8401B022801D903208DE7206828
:104CF0000001F5D5504688E7284402582DE9F047D1
:104D0000454D044689464FF0000A2868C043800795
:104D10000AD0414E283E306820F080503060FDF7C8
:104D200013F80746B04608E00120BDE8F08700BF51
:104D3000FDF70AF8C01B022867D8D8F800008000E9
:104D4000F6D4208829684FF4FE0721F07C713E02DA
:104D500041EA00502860207AA389B4F804C04002D8
:104D60002D4D2D495B1E227CACF1010C1835091D1F
:104D7000A0F5007080B2521ECCF3080C07EA034382
:104D800040EA0C00184306EA0262104328600868F3
:104D9000626920F44060104308600A68A06922F448
:104DA000007202430A60281D0A6822F480720A60B9
:104DB00002684FF6F873E4699A4342EAC40202605B
:104DC0000868B9F1000F40F480720A6011D00868D9
:104DD000B9F1010F11D040F080700860D8F80000E0
:104DE000444640F08050C8F80000FCF7ADFF05468F
:104DF0000DE0086840F48000EFE740F40000ECE7C5
:104E0000FCF7A2FF401B022801D903208DE7206890
:104E10008000F5D5504688E7284402580022024811
:104E20000821FCF785BF0000000802580122024853
:104E30000821FCF77DBF00000008025810B5026889
:104E400040F26F335169946944F008049461026838
:104E5000946944F0100494610268146824F0010419
:104E60001460026814699C4314610268936823F417
:104E70004043936090F88120042A0CD08A060AD51A
:104E8000D0F8842042F08002C0F884200268936940
:104E900043F02003936190F88120032A0CD04A0646
:104EA0000AD5D0F8842042F00402C0F884200268B9
:104EB000936943F0400393618A050AD5D0F88420B2
:104EC00042F00102C0F884200268936943F4007341
:104ED0009361C9050AD5D0F8841041F00801C0F8E3
:104EE000841001688A6942F480728A610021A0F806
:104EF0006210A0F86A1010BD7047FCF72BBF0000CD
:104F0000F0B59DB04C216846FBF72EFA202113A87E
:104F1000FBF72AFA0220FDF70FF82D4900242D484F
:104F20000A6822F001020A600A68026842F44042FC
:104F30000260026802F440421B9202689204FCD5AF
:104F4000254A136843F002031360126802F002025C
:104F50001B92026842F44042026002680A6842F012
:104F600001020A60096801F001011B9101688904CE
:104F7000FCD540250DF1280C0121022009900C27B9
:104F80007823CDE903158CE80B00CDE90D07C203AA
:104F90000F9003266846CDE91074CDE900621294A3
:104FA000FEF730F880B908211594CDE91615CA012D
:104FB0001A953F200421CDE91852CDE9130613A814
:104FC000FDF710FE002801D0FBF7ACFC1DB0F0BDD2
:104FD0002C04005818480258F4440258454870B54B
:104FE000444B0168103B444811F0380105D00829B2
:104FF00008D0102908D0182908D01968C1F3C101B8
:10500000C84063E03D4861E03D485FE03949394DC3
:1050100018310C1D24350A68096826682D6802F0CD
:10502000030406F00102C1F30511C5F3CC0515FB1D
:1050300002F200EE102AB8EE400AC9B3324ADFEDA0
:10504000310AB7EE001A1CB1012C13D0022C30D05B
:105050001B6801EE901A1168C3F3C103F8EE612AD0
:10506000D84001EE900AC1F30800F8EE611A81EE13
:10507000A22A04E001EE901ADFED242A1DE001EEE1
:10508000900A1068F8EE611A40EE201A31EE810A9B
:1050900022EE000AC0F34620401C00EE900AF8EE13
:1050A000600A80EE201ABCEEC10A10EE100A0DE074
:1050B0000BE001EE901ADFED162A1068F8EE611A87
:1050C000C0F3080082EEA12AD9E700200949114B5C
:1050D0000831114A0C680D68C4F3032105F00F0470
:1050E000595C1B5DC84003F01F0120FA01F1C2E9C1
:1050F000000170BD104402580090D00300093D002B
:1051000000127A0000000039304402580024744A2A
:105110000024F44A9C720008240000242C48F0B5B6
:105120002C4A016841F470010160106800F00F0022
:10513000072804D2106820F00F00C01D1060264917
:105140000020254C10340B68244D43F001030B6004
:1051500020600B682B400B60136803F00F03072BD4
:1051600004D9136823F00F03DB1D13601A4C1C4A8B
:1051700018341C4B261D371D2060174C1A4D28343F
:105180003060261D3860371D23603B1D35601C1DB7
:105190003A60251D2E1D1860331D22602860326084
:1051A00018600A680C4B114C22F4802260330A60AC
:1051B000186020686FF30F00B0F1005F03D20C4954
:1051C0000120C1F8080143F2D2000A490860F0BD8D
:1051D00088ED00E000200052004402587FEDF6EA1E
:1051E00080020101000202020000FF010010005CC9
:1051F00000800051004000520148FEF794BD0000BD
:10520000040300242DE9F047274B4FF0804A274D37
:1052100002689842264E274F274C09D0504507D0A8
:10522000A84205D0B04203D0B84201D0A04205D177
:10523000D1F804C022F070024CEA0202DFF87CC010
:10524000DFF87C809842DFF87C900FD050450DD07D
:10525000A8420BD0B04209D0B84207D0A04205D036
:10526000604503D0404501D0484503D1CD6822F4C4
:1052700040722A434D6922F080022A43026098421C
:105280008A68C2620A68826207D0A04205D060457F
:1052900003D0404501D0484501D10969016301218E
:1052A0004161BDE8F08700000000014000040040BB
:1052B00000080040000C0040000401400040014094
:1052C000004401400048014010B5046A012301F088
:1052D0001F018B409C4304628A40016A11430162B2
:1052E00010BD42EA032283680A4323F47F410A4344
:1052F00082607047034B82681A400A4342F00701FC
:10530000816070478FFFCFFF2DE9F04F026ADFF811
:105310008880DFF8889022F00102DFF884A0DFF8AF
:1053200084B0214F0262DFF884C0066A4268836954
:1053300026F002060D68B8428C6803EA0C0323F0DD
:10534000030344EA060445EA030507D0404505D0B7
:10535000484503D0504501D0584505D1CB6824F0CD
:105360000804234323F00404B84207D0404505D085
:10537000484503D0504501D0584505D122F4407628
:10538000D1E9053233431A4342608561496841637C
:105390000462BDE8F08F00000004014000400140BD
:1053A0000044014000480140000001408FFFFEFF23
:1053B000F0B5026A1E4E1F4C22F01002DFF878E0B2
:1053C0000262056A4368826925F02005D1F808C0A9
:1053D000A0420F6802EA060222F4407245EA0C1568
:1053E00042EA072201D0704506D1CE6825F080053B
:1053F00045EA061525F04005A0420AD0704508D0C0
:105400000E4CA04205D00E4CA04202D00D4CA04242
:1054100007D1D1E9054623F4406343EA840343EA14
:10542000860343608261496881630562F0BD0000C4
:10543000FF8FFFFE000001400004014000400140DA
:105440000044014000480140F0B5026A1E4F1F4E63
:1054500022F48072DFF878E00262056A4368C2696C
:1054600025F40075D1F808C0B0420C6802EA0702C2
:1054700022F0030245EA0C2544EA020401D07045FB
:1054800006D1CF6825F4006242EA072222F4806543
:10549000B0420AD0704508D00E4A904205D00E4A5C
:1054A000904202D00D4A904207D123F44052D1E9F4
:1054B000053642EA031242EA06134360C4614968B2
:1054C000C1630562F0BD00008FFFFEFF00000140D8
:1054D00000040140004001400044014000480140F8
:1054E000F0B5026A174B164F22F4805298420262BE
:1054F000046A4268C36924F400548E680D6803EAA4
:10550000070323F4407344EA063443EA05230BD02F
:105510000D4DA84208D00D4DA84205D00C4DA84213
:1055200002D00C4DA84204D14D6922F4804242EAD7
:1055300085124260C361496801640462F0BD0000E5
:10554000FF8FFFFE000001400004014000400140C9
:105550000044014000480140F0B5026ADFF854C041
:1055600022F480320262056A4268446D25F40035F7
:105570000E896045104F0B6804EA070445EA0645AA
:1055800043EA04030BD00D4CA04208D00C4CA042BF
:1055900005D00C4CA04202D00B4CA04204D14C6967
:1055A00022F4803242EA0422426043654968816500
:1055B0000562F0BD000001408FFFFEFF00040140C6
:1055C000004001400044014000480140F0B5026A3B
:1055D000DFF854C022F480120262046A4268436D0C
:1055E00024F400140E896045104F0D6803EA070388
:1055F00044EA065443EA05230BD00D4DA84208D0D7
:105600000C4DA84205D00C4DA84202D00B4DA8422B
:1056100004D14D6922F4802242EA8522426043652A
:105620004968C1650462F0BD00000140FF8FFFFEC4
:105630000004014000400140004401400048014096
:1056400010B5036A046A23F00A0324F0010404621B
:1056500084690B4324F0F00141EA02118161036285
:1056600010BD10B5036A23F0100303628369046A56
:1056700023F4704324F0A00443EA0232826144EA36
:105680000111016210BD000070B50C4D0022102107
:105690002846FCF74DFB0A4901220A484FF0FF3328
:1056A000FEF7C0F80648012210210C38C068C0F38C
:1056B0008F242846FCF73CFB204670BD00000258B2
:1056C00070000024A801002430B5416EB9B1016812
:1056D0000D4B03F108048A688968C2F34262490FDE
:1056E0005D5C615C2D01B5FBF1F1A0F86A10995C7D
:1056F000A25C0901B1FBF2F1A0F8681030BD0121F4
:10570000A0F86A10F8E700008C72000890F82810E2
:10571000C90706D00168C36A4A6822F400321A43F6
:105720004A6090F82810890706D50168036B4A681B
:1057300022F480321A434A6090F82810490706D5AF
:105740000168436B4A6822F480221A434A6090F849
:105750002810090706D50168836B4A6822F40042C5
:105760001A434A6090F82810C90606D50168C36B31
:105770008A6822F480521A438A6090F828108906B9
:1057800006D50168036C8A6822F400521A438A60C5
:1057900090F82810490611D50168436C4A6822F434
:1057A00080121A434A60416CB1F5801F06D101682E
:1057B000836C4A6822F4C0021A434A6090F82810A9
:1057C000090606D50168C26C486820F40020104321
:1057D000486070472DE9F84300250446C0F8905012
:1057E000FCF7B2FA8046206820266FF07E470068FA
:1057F000000713D50022434631042046009700F0ED
:1058000049FA58B1216851E8000F20F0800041E8C2
:105810000002002AF6D1C4F8886021E02068006800
:10582000400722D5002243464FF4800120460097CE
:1058300000F030FAC8B1206850E8001F21F49071E0
:1058400040E80012002AF6D12068083050E8001F16
:1058500021F0010140E80012002AF5D1C4F88C6063
:10586000032084F88450BDE8F883C4F88860C4F845
:105870008C60E5662567002084F88450F3E710B556
:10588000806B0021A0F85E10A0F85610FEF701FD15
:1058900010BD000010B5026852E8001F21F490719D
:1058A00042E80013002BF6D10E4B0268083252E892
:1058B000001F194042E80014002CF6D1C16E0129E6
:1058C00008D1026852E8001F21F0100142E80013DD
:1058D000002BF6D100212022C0F88C20C166416740
:1058E00010BD0000FEFFFFEF2DE9F0430446806885
:1058F000D84E87B0D84B2168D4E90427D4F81CC00F
:1059000010430A68002547EA0C0738433240024337
:105910000A602068E268416821F440511143416007
:105920002268A1699A4201D0206A01439768DFF892
:105930002CC3CB4ECB4807EA0C070F439760216876
:10594000676ACA6A22F00F023A43CA622268B24208
:105950000ED1006800F03800182873D047DCB8B3C7
:10596000082879D010286FD178E028287ED17BE0F4
:10597000BD498A4209D1006800F00700062875D2A7
:10598000DFE800F0546A6C6E7072B8498A4209D13F
:10599000006800F00700062868D2DFE800F0475DE5
:1059A0005F616365B2498A4209D1006800F007006F
:1059B00006285BD2DFE800F03A5052545658AD4901
:1059C0008A420BD1006800F0070006284ED200E0A2
:1059D00010E0DFE800F02B4143454749A6498A42E1
:1059E0000AD1006800F03800182839D0B7DD202827
:1059F000BBD13CE001203AE0A0498A4209D10068CD
:105A000000F00700062831D2DFE800F01026282A2F
:105A10002C2E9B498A420BD1006800F00700062813
:105A200024D2DFE800F003191B1D1F2100201EE017
:105A30009A421BD18B48001D006800F00700062821
:105A400014D202E00CE007E010E0DFE800F003050C
:105A500007090B0D02200AE0042008E0082006E0F8
:105A6000102004E0202002E0402000E08020854952
:105A7000DFF814829A42854A4FF400434FEA211717
:105A80004FF000064ED110281AD006DC022809D0AB
:105A900004280BD008287CD10DE020283ED04028D7
:105AA00077D13DE0FCF772FA014610E06846FCF75A
:105AB0007FFA01990BE003A8FCF71CFB049906E0B0
:105AC0001068800605D51068C0F3C100C1400029E8
:105AD00070D0606A676838F8102007EB4703B1FBA5
